:1000000045C0000060C000005EC000005CC0000091
:100010005AC0000058C0000056C0000054C0000084
:1000200052C0000050C000004EC000004CC0000094
:100030004AC0000049C0000046C0000044C00000A3
:1000400042C0000040C000003EC000003CC00000B4
:100050003AC0000038C0000036C0000034C00000C4
:1000600032C0000030C000002EC000002CC00000D4
:100070002AC0000028C0000026C0000024C00000E4
:1000800022C0000020C000001EC0000011241FBEBE
:10009000CFEFD0E4DEBFCDBF11E0A0E0B1E0E8E7F4
:1000A000F2E000E00BBF02C007900D92A430B10750
:1000B000D9F721E0A4E0B1E001C01D92AD30B20754
:1000C000E1F769D0D7C09CCF1F920F920FB60F9265
:1000D00011248F939F93AF93BF93809108019091C8
:1000E0000901A0910A01B0910B010197A109B10981
:1000F0008093080190930901A0930A01B0930B012A
:10010000892B8A2B8B2B99F481E080930C018091B1
:10011000000190910101A0910201B091030180932F
:10012000080190930901A0930A01B0930B01BF91BC
:10013000AF919F918F910F900FBE0F901F901895C8
:1001400080EC80937C008FE880937A000895ECE740
:10015000F0E090818770982B908389EF90E0019771
:10016000F1F700C00000EAE7F0E08081806480835E
:1001700089EF90E00197F1F700C00000808184FFD3
:10018000FDCFEAE7F0E08081806180838091780094
:1001900090917900089511B88FEF82B984B915B89C
:1001A0008AB91BB8CDDF81EC80937C00EAE7F0E0F0
:1001B00080818064808381EE94E00197F1F700C034
:1001C00000006894CC24C2F86894FF24F1F80CE78E
:1001D00010E00F2EF2ECDF2EF02DCAE7D0E00F2E4C
:1001E000F1ECEF2EF02D81E0B2DF909307018093C8
:1001F0000601813F910518F081E085B906C085367A
:10020000910510F0F5B801C0C5B8E3ECF9E03197FD
:10021000F1F700C00000F801D082888180648883F3
:1002200081EE94E00197F1F700C000008F2D8FDF81
:100230009093050180930401813F910518F081E0BE
:100240008BB906C08536910510F0FBB801C0CBB85C
:10025000E3ECF9E03197F1F700C00000F801E0822B
:1002600088818064888381EE94E00197F1F700C073
:080270000000B9CFF894FFCFA4
:040278000100000081
:00000001FF
