:1000000045C0000060C000005EC000005CC0000091
:100010005AC0000058C0000056C0000054C0000084
:1000200052C0000050C000004EC000004CC0000094
:100030004AC0000049C0000046C0000044C00000A3
:1000400042C0000040C000003EC000003CC00000B4
:100050003AC0000038C0000036C0000034C00000C4
:1000600032C0000030C000002EC000002CC00000D4
:100070002AC0000028C0000026C0000024C00000E4
:1000800022C0000020C000001EC0000011241FBEBE
:10009000CFEFD0E4DEBFCDBF11E0A0E0B1E0E8E8F3
:1000A000F3E000E00BBF02C007900D92A430B1074F
:1000B000D9F721E0A4E0B1E001C01D92A931B20757
:1000C000E1F769D05FC19CCF1F920F920FB60F92DC
:1000D00011248F939F93AF93BF93809104019091CC
:1000E0000501A0910601B09107010197A109B1098D
:1000F0008093040190930501A0930601B09307013A
:10010000892B8A2B8B2B99F481E0809308018091B5
:10011000000190910101A0910201B091030180932F
:10012000040190930501A0930601B0930701BF91CC
:10013000AF919F918F910F900FBE0F901F901895C8
:1001400080EC80937C008FE880937A000895ECE740
:10015000F0E090818770982B908389EF90E0019771
:10016000F1F700C00000EAE7F0E08081806480835E
:1001700089EF90E00197F1F700C00000808184FFD3
:10018000FDCFEAE7F0E08081806180838091780094
:1001900090917900089511B88FEF82B987B918B896
:1001A000CFDF0CE710E00F2EF0EC9F2EF02DCAE70A
:1001B000D0E00F2EF0EE4F2EF02D0F2EF1ECAF2EE3
:1001C000F02D0F2EF0E75F2EF02D0F2EF2ECBF2E4C
:1001D000F02D0F2EF8E36F2EF02D0F2EF3ECCF2E17
:1001E000F02D0F2EFCE17F2EF02D0F2EF4ECDF2EE4
:1001F000F02D0F2EFEE08F2EF02D0F2EF5ECEF2EB2
:10020000F02D0F2EF7E0FF2EF02DF801908288815F
:100210008064888381EE94E00197F1F700C00000CC
:1002200080E095DF90931601809315018739910541
:1002300010F018B801C048B8F801A0828881806425
:10024000888381EE94E00197F1F700C0000081E01F
:100250007EDF90930A01809309018739910510F0A0
:1002600018B801C058B8F801B082888180648883CA
:1002700081EE94E00197F1F700C0000082E067DFB3
:100280009093100180930F018739910510F018B8F1
:1002900001C068B8F801C08288818064888381EEDB
:1002A00094E00197F1F700C0000083E050DF9093E5
:1002B0001201809311018739910510F018B801C01F
:1002C00078B8F801D08288818064888381EE94E0D8
:1002D0000197F1F700C0000084E039DF9093180126
:1002E000809317018739910510F018B801C088B8BC
:1002F000F801E08288818064888381EE94E0019730
:10030000F1F700C0000085E022DF90930C0180939C
:100310000B018739910510F018B801C0F8B886ECC8
:10032000F801808388818064888381EE94E001975E
:10033000F1F700C0000086E00ADF90930E01809381
:100340000D018739910510F018B802C083E088B913
:1003500087ECF801808388818064888381EE94E053
:100360000197F1F700C000008F2DF1DE909314018A
:10037000809313018739910510F018B846CF81E0BA
:0803800088B943CFF894FFCFC8
:040388000100000070
:00000001FF
