:1000000045C0000060C000005EC000005CC0000091
:100010005AC0000058C0000056C0000054C0000084
:1000200052C0000050C000004EC000004CC0000094
:100030004AC0000092C0000046C0000044C000005A
:1000400042C0000040C000003EC000003CC00000B4
:100050003AC0000038C0000036C0000034C00000C4
:1000600032C0000030C000002EC000002CC00000D4
:100070002AC0000028C0000026C0000024C00000E4
:1000800022C0000020C000001EC0000011241FBEBE
:10009000CFEFD0E4DEBFCDBF11E0A0E0B1E0E6E8F5
:1000A000F2E000E00BBF02C007900D92A430B10750
:1000B000D9F721E0A4E0B1E001C01D92A631B2075A
:1000C000E1F792D0DEC09CCF029778F4809178005F
:1000D000909179009093100180930F0188B98091DD
:1000E0000F018EBD81E090E0089580E090E00895DA
:1000F00060930001709301018093020190930301CA
:100100006093110170931201809313019093140175
:1001100008958BE0809381008DE790E090938900B3
:100120008093880082E080936F0010928500109287
:1001300084008091000190910101A0910201B09191
:1001400003018093110190931201A0931301B093C6
:1001500014018FB780688FBF08951F920F920FB65A
:100160000F9211248F939F93AF93BF9380911101AE
:1001700090911201A0911301B09114010197A1096E
:10018000B1098093110190931201A0931301B093D0
:100190001401892B8A2B8B2B99F481E08093150114
:1001A0008091000190910101A0910201B0910301A1
:1001B0008093110190931201A0931301B093140145
:1001C000BF91AF919F918F910F900FBE0F901F9095
:1001D0001895EAE7F0E08081806E8083089580E5DD
:1001E00085B980E48CBD089511B88FEF82B987B9C5
:1001F00018B8E4E0F1E0808388EE93E0A0E0B0E09E
:1002000081839283A383B48385839683A783B087F6
:1002100084E690E09287818761E070E080E090E082
:1002200067DF77DFD6DFDBDFC4E0D1E04D815E81C1
:100230006F81788589819A81AB81BC814817590784
:100240006A077B0761F48881E985FA85082E000C2E
:10025000990B099588831D821E821F8218868D81C5
:100260009E81AF81B8850196A11DB11D8D839E83AE
:10027000AF83B887809115018823E1F310921501AF
:06028000D5CFF894FFCF7A
:040286000100000073
:00000001FF
