S01700006D756C74695F636F6C6F725F6C65642E73726563D0
S113000045C0000060C000005EC000005CC000008D
S11300105AC0000058C0000056C0000054C0000080
S113002052C0000050C000004EC000004CC0000090
S11300304AC000007EC0000046C0000044C000006A
S113004042C0000040C000003EC000003CC00000B0
S11300503AC0000038C0000036C0000034C00000C0
S113006032C0000030C000002EC000002CC00000D0
S11300702AC0000028C0000026C0000024C00000E0
S113008022C0000020C000001EC0000011241FBEBA
S1130090CFEFD0E4DEBFCDBF11E0A0E0B1E0ECE7EC
S11300A0F3E000E00BBF02C007900D92A430B1074B
S11300B0D9F721E0A4E0B1E001C01D92A332B20758
S11300C0E1F7D7D059C19CCF60930001709301012F
S11300D0809302019093030160931C0170931D01AE
S11300E080931E0190931F0108958BE080938100FB
S11300F08DE790E0909389008093880082E080935C
S11301006F001092850010928400809100019091FC
S11301100101A0910201B091030180931C0190930D
S11301201D01A0931E01B0931F018FB780688FBF7C
S113013008951F920F920FB60F9211248F939F93DD
S1130140AF93BF9380911C0190911D01A0911E015A
S1130150B0911F010197A109B10980931C019093EB
S11301601D01A0931E01B0931F01892B8A2B8B2B99
S113017099F481E080932001809100019091010124
S1130180A0910201B091030180931C0190931D0181
S1130190A0931E01B0931F01BF91AF919F918F91C6
S11301A00F900FBE0F901F90189580E480937C00F1
S11301B087E880937A000895ECE7F0E090818770F7
S11301C0982B908383EF91E00197F1F700C0000032
S11301D0EAE7F0E0808180648083808184FFFDCF42
S11301E0EAE7F0E0808180618083809178009091DB
S11301F0790008950297B8F480E0DEDF80931B0154
S1130200813F28F081E085B981E090E0089585364A
S113021028F082E085B981E090E0089584E085B912
S113022081E090E0089580E090E0089580912201BB
S1130230882319F08130B1F004C081E08093220159
S113024011C0109222010AC081E08BB907C0853623
S113025018F082E08BB902C084E08BB9809122014E
S113026090E0089581E0A8DF80931A01813F78F33C
S1130270EBCFCF93DF9300D000D0CDB7DEB711B86A
S11302808FEF82B984B915B88AB91BB8AFE0B1E071
S1130290BA83A983E4E0F1E0FC83EB838C9341E02F
S11302A050E060E070E011964D935D936D937C9304
S11302B0149715964D935D936D937C9318972AEF3D
S11302C030E01A963C932E9319978083418352838E
S11302D063837483458356836783708786E191E0E3
S11302E09287818761E070E080E090E0EDDEFDDEE2
S11302F05CDF7E0185E0E80EF11CDE0111966D01E4
S1130300F601019111916F01D80115964D915D91FE
S11303106D917C91189711968D919D910D90BC9142
S1130320A02D481759076A077B0781F4F8018081DB
S11303300184F285E02D082E000C990B0995D80153
S11303408C93F8011582168217821086F801858134
S11303509681A781B0850196A11DB11D85839683E1
S1130360A783B087CE14DF0459F680912001882337
S10F0370E1F310922001C1CFF894FFCFFC
S107037C0100000078
S9030000FC
