:1000000045C0000060C000005EC000005CC0000091
:10001000C9C1000058C0000056C0000054C0000014
:10002000F2C1000050C000004EC000004CC00000F3
:100030004AC0000097C0000046C0000044C0000055
:1000400042C0000040C000003EC000003CC00000B4
:100050003AC0000038C0000036C0000034C00000C4
:1000600032C0000030C000002EC000002CC00000D4
:100070002AC0000028C0000026C0000024C00000E4
:1000800022C0000020C000001EC0000011241FBEBE
:10009000CFEFD0E4DEBFCDBF11E0A0E0B1E0ECE8EF
:1000A000F6E000E00BBF02C007900D92AC30B10744
:1000B000D9F721E0ACE0B1E001C01D92AA33B2074C
:1000C000E1F7ABD1E1C29CCF80913901882319F0CF
:1000D000813081F004C081E0809339010BC010921F
:1000E000390104C08FEF85B910920C01809139015C
:1000F00090E00895029BF6CFF9CF609301017093D1
:100100000201809303019093040160933101709385
:100110003201809333019093340108958BE08093F2
:1001200081008DE790E0909389008093880082E0C1
:1001300080936F00109285001092840080910101DD
:1001400090910201A0910301B091040180933101CB
:1001500090933201A0933301B09334018FB780683C
:100160008FBF08951F920F920FB60F9211248F9395
:100170009F93AF93BF938091310190913201A091F1
:100180003301B09134010197A109B1098093310184
:1001900090933201A0933301B0933401892B8A2BC1
:1001A0008B2B99F481E0809335018091010190912E
:1001B0000201A0910301B091040180933101909359
:1001C0003201A0933301B0933401BF91AF919F915D
:1001D0008F910F900FBE0F901F901895181619064B
:1001E0005CF00895000021503109E1F74F5F5F4F47
:1001F0008417950719F4089540E050E027E033E0B4
:10020000F1CF5E9888B95F9A00005F9882E090E035
:10021000E5CF089581E0F5CF0895813118F4815834
:10022000F0CF08958155EDCF089584E690E0D6DFB4
:1002300088E3E7DF86E0E5DF8FE0E3DF81E0E1DF11
:100240008AE090E0CBCF08955E9A88B95F9A00006B
:100250005F9881E090E0C2CF0895809136018823B5
:1002600019F08130F9F004C081E0809336011AC0A2
:100270001092360113C0CEDFE0913701F0913801C2
:10028000118615B810920C0109C08F5F80930C0184
:1002900081E0C3DF80910001805DD6DF809136016F
:1002A00090E0089580910C01833078F3E4CF909131
:1002B0000001890F8A3010F4809300010895823084
:1002C000910589F134F4009759F08130910571F06E
:1002D00045C08330910591F184309105D1F13EC044
:1002E00083E08093000181E090E00895009908C0C8
:1002F000019B06C081E090E0DADF82E090E00895A3
:10030000009B08C0019906C08FEF9FEFD0DF83E00C
:1003100090E00895009936C0019934C01092000110
:1003200084E090E00895009902C001992BC00099E3
:1003300018C0019919C08FEF8BB9FFCF009B02C085
:10034000019B20C0009913C0019914C084E090E083
:100350000895009912C0019B15C012C081E090E081
:10036000089581E090E0089581E090E0089581E0B3
:1003700090E0089581E090E0089581E090E0089594
:1003800081E090E00895E8E6F0E02081216020839C
:10039000EBE6F0E020812460208390933801809385
:1003A000370108951F920F920FB60F9211240BB6CA
:1003B0000F928F93EF93FF93E0913701F091380103
:1003C00081E08187FF91EF918F910F900BBE0F908D
:1003D0000FBE0F901F9018959FB71FBEA89514BE13
:1003E000E0E6F0E080818861808310820FB6F894A7
:1003F000A8958091600088618093600010926000F1
:100400000FBE9FBF08951F920F920FB60F92112437
:100410000F900FBE0F901F901895CF93DF9300D0D1
:1004200000D000D0CDB7DEB7D7DF11B81FEF12B9BB
:1004300014B915B817B918B81AB91BB8F6DEEADE40
:1004400015B912E300E0F12CE12C51E040E030E07E
:1004500020E004C0162F072FF82EE92E652F742FE9
:10046000832F922F212F302F4F2D5E2DEBD0512F28
:10047000402F3F2D2E2D611571058105910551F7F6
:100480000F2EF8EEDF2EF02D0F2EF3E0CF2EF02DF5
:10049000B12CA12C04C0D62EC72EB82EA92E612FA8
:1004A000702F8F2D9E2D2D2D3C2D4B2D5A2DCAD0CA
:1004B0001D2D0C2DFB2CEA2C611571058105910574
:1004C00051F70F2EF2E3EF2EF02DF12C00E010E0AB
:1004D00004C0E62EF72E082F192F6D2D7C2D8B2DA5
:1004E0009A2D2E2D3F2D402F512FACD0DE2CCF2C0E
:1004F000B02EA12E611571058105910551F762E3BA
:1005000070E080E090E02E2D3F2D402F512F9AD0AB
:1005100049015A0168EE73E080E090E02E2D3F2DF6
:10052000402F512F8FD086E0E5E0F1E0DE011196FB
:1005300001900D928A95E1F7E5E2F1E08FEF80837B
:1005400081829282A382B48285829682A782B086BB
:10055000DD24D394D1866FE571E073876287E9E18A
:10056000F1E0808321833283438354832583368360
:1005700047835087D1862DE231E033872287EDE033
:10058000F1E0808381829282A382B4828582968206
:10059000A782B086D18684E690E0938782876E2D0D
:1005A0007F2D802F912FA9DDB9DDD5B88DE091E0A9
:1005B000EADE7E0187E0E80EF11CDE0111966D0196
:1005C000A895F601019111916F01D80119968C91AE
:1005D0001997882309F115964D915D916D917C9144
:1005E000189711968D919D910D90BC91A02D481753
:1005F00059076A077B0780F0F80180810284F38540
:10060000E02D082E000C990B0995D8018C93F80168
:100610001582168217821086F80185819681A7813E
:10062000B0850196A11DB11D85839683A783B087F0
:10063000CE14DF0429F6809135018823E1F310926E
:100640003501BBCFA1E21A2EAA1BBB1BFD010DC0B9
:10065000AA1FBB1FEE1FFF1FA217B307E407F50772
:1006600020F0A21BB30BE40BF50B661F771F881F4E
:10067000991F1A9469F760957095809590959B01E4
:0C068000AC01BD01CF010895F894FFCF3C
:0C068C000301000000250119010D010010
:00000001FF
