S0240000636C6567613030315F6A63656E743030315F6C6162315F70617274312E7372656369
S113000045C0000060C000005EC000005CC000008D
S11300105AC0000058C0000056C0000054C0000080
S113002052C0000050C000004EC000004CC0000090
S11300304AC000006DC0000046C0000044C000007B
S113004042C0000040C000003EC000003CC00000B0
S11300503AC0000038C0000036C0000034C00000C0
S113006032C0000030C000002EC000002CC00000D0
S11300702AC0000028C0000026C0000024C00000E0
S113008022C0000020C000001EC0000011241FBEBA
S1130090CFEFD0E4DEBFCDBF11E0A0E0B1E0E8EFE8
S11300A0F2E000E00BBF02C007900D92A630B1074A
S11300B0D9F721E0A6E0B1E001C01D92AE30B2074D
S11300C0E1F7CED017C19CCF8BE0809381008DE700
S11300D090E0909389008093880082E080936F0081
S11300E01092850010928400809102019091030186
S11300F0A0910401B0910501809307019093080138
S1130100A0930901B0930A018FB780688FBF089547
S11301101F920F920FB60F9211248F939F93AF9358
S1130120BF938091070190910801A0910901B091BA
S11301300A010197A109B10980930701909308016D
S1130140A0930901B0930A01892B8A2B8B2B99F474
S113015081E080930B018091020190910301A091B1
S11301600401B09105018093070190930801A093C5
S11301700901B0930A01BF91AF919F918F910F90A4
S11301800FBE0F901F9018956093020170930301A6
S11301908093040190930501609307017093080113
S11301A08093090190930A01089590B181E091111F
S11301B001C080E08093060180910D01813051F0EF
S11301C028F0823069F08330C9F00EC081E080935A
S11301D00D0110C082E080930D0110920101089579
S11301E081E080930D0106C010920D0188E0809398
S11301F00101089588E080930101089588E08093C7
S11302000101089590B181E0911101C080E08093D3
S1130210060180910C01882319F08130D9F004C0C3
S113022081E080930C0116C010920C0184E080934D
S11302300001089581E0809300010895813021F444
S113024082E0809300010895823049F484E0809331
S11302500001089580910001843081F7EBCF089567
S113026011B88FEF82B984B915B815B864E670E097
S113027080E090E089DF28DF10920D0110920C01DC
S11302809091010180910001892385B9812C912CE1
S11302905401C12CD12C76010FC087DF812C912C05
S11302A0540184EFC81681E0D806E104F10420F07B
S11302B0A9DFC12CD12C760190910101809100011C
S11302C0892B85B980910B018823E1F310920B01EE
S11302D084E6880E911CA11CB11C84E6C80ED11CB6
S11302E0E11CF11C88EE881683E09806A104B10491
S10B02F0C0F2D3CFF894FFCF54
S10902F8040801000000EF
S9030000FC
