:1000000045C0000060C000005EC000005CC0000091
:100010005AC0000058C0000056C0000054C0000084
:1000200052C0000050C000004EC000004CC0000094
:100030004AC00000FEC0000046C0000044C00000EE
:1000400042C0000040C000003EC000003CC00000B4
:100050003AC0000038C0000036C0000034C00000C4
:1000600032C0000030C000002EC000002CC00000D4
:100070002AC0000028C0000026C0000024C00000E4
:1000800022C0000020C000001EC0000011241FBEBE
:10009000CFEFD0E4DEBFCDBF11E0A0E0B1E0ECEDEA
:1000A000F4E000E00BBF02C007900D92AA30B10748
:1000B000D9F721E0AAE0B1E001C01D92A333B20755
:1000C000E1F7F3D009C29CCF8230910581F02CF486
:1000D0000097E1F0019741F01EC08330910551F087
:1000E0008430910551F017C0009B18C009C0009BD7
:1000F00018C00CC0009B17C003C0009907C008952A
:1001000081E080932D0181E090E0089510922D010F
:1001100082E090E0089580E090E0089584E090E02F
:10012000089583E090E008958130910531F08230A8
:10013000910541F0892BA9F409C080912D018823F4
:1001400059F004C080912D01811106C088E0809390
:100150002C0181E090E0089510922C0182E090E063
:10016000089580E090E008958130910551F01CF4ED
:10017000892BA9F026C08230910541F0039759F0F0
:1001800020C080912D01882381F009C080912D012C
:10019000882389F00AC080912D0181110CC081E073
:1001A00080932B0181E090E0089582E080932B0101
:1001B00082E090E0089584E080932B0183E090E05A
:1001C000089580E090E0089560930001709301012C
:1001D000809302019093030160932E0170932F018D
:1001E000809330019093310108958BE080938100DA
:1001F0008DE790E0909389008093880082E080935F
:100200006F001092850010928400809100019091FF
:100210000101A0910201B091030180932E019093FE
:100220002F01A0933001B09331018FB780688FBF49
:1002300008951F920F920FB60F9211248F939F93E0
:10024000AF93BF9380912E0190912F01A091300127
:10025000B09131010197A109B10980932E019093CA
:100260002F01A0933001B0933101892B8A2B8B2B66
:1002700099F481E080933201809100019091010115
:10028000A0910201B091030180932E0190932F0160
:10029000A0933001B0933101BF91AF919F918F91A5
:1002A0000F900FBE0F901F901895CF93DF9300D043
:1002B00000D000D0CDB7DEB711B88FEF82B984B9C6
:1002C00015B80F2EF8EEDF2EF02D0F2EF3E0CF2E07
:1002D000F02DB12CA12C52E340E030E020E004C02E
:1002E000D62EC72EB82EA92E652F742F832F922FAE
:1002F0002D2D3C2D4B2D5A2DCDD05D2D4C2D3B2D34
:100300002A2D611571058105910551F70F2EF4EF26
:10031000EF2EF02DFF24F39400E010E004C0E62E51
:10032000F72E082F192F6D2D7C2D8B2D9A2D2E2D0C
:100330003F2D402F512FAED0DE2CCF2CB02EA12E32
:10034000611571058105910551F762E370E080E068
:1003500090E02E2D3F2D402F512F9CD029013A01A6
:1003600068EE73E080E090E02E2D3F2D402F512F5E
:1003700091D049015A0164EF71E080E090E02E2DA8
:100380003F2D402F512F86D086E0E4E0F1E0DE01E2
:10039000119601900D928A95E1F7E0E2F1E06FEF9E
:1003A0006083418252826382748245825682678270
:1003B000708684E690E092878187E5E1F1E06083D2
:1003C00081829282A382B48285829682A782B0863D
:1003D00084E990E092878187EAE0F1E060832183FD
:1003E000328343835483258336834783508784EB4A
:1003F00090E0928781876E2D7F2D802F912FE4DEF4
:10040000F4DE6E0187E0C80ED11CDE0111967D017D
:10041000F701019111917F01D80115964D915D91E0
:100420006D917C91189711968D919D910D90BC9135
:10043000A02D481759076A077B0781F4F8018081CE
:100440000184F285E02D082E000C990B0995D80146
:100450008C93F8011582168217821086F801858127
:100460009681A781B0850196A11DB11D85839683D4
:10047000A783B08790912C0180912B01892B85B99E
:10048000EC14FD0429F6809132018823E1F31092E7
:100490003201BBCFA1E21A2EAA1BBB1BFD010DC06E
:1004A000AA1FBB1FEE1FFF1FA217B307E407F50724
:1004B00020F0A21BB30BE40BF50B661F771F881F00
:1004C000991F1A9469F760957095809590959B0196
:0C04D000AC01BD01CF010895F894FFCFEE
:0A04DC0001000000200115010A01D3
:00000001FF
