:1000000045C0000060C000005EC000005CC0000091
:100010005AC0000058C0000056C0000054C0000084
:1000200052C0000050C000004EC000004CC0000094
:100030004AC0000049C0000046C0000044C00000A3
:1000400042C0000040C000003EC000003CC00000B4
:100050003AC0000038C0000036C0000034C00000C4
:1000600032C0000030C000002EC000002CC00000D4
:100070002AC0000028C0000026C0000024C00000E4
:1000800022C0000020C000001EC0000011241FBEBE
:10009000CFEFD0E4DEBFCDBF11E0A0E0B1E0E2EFF2
:1000A000F4E000E00BBF02C007900D92A430B1074E
:1000B000D9F721E0A4E0B1E001C01D92AB31B20755
:1000C000E1F7E4D014C29CCF1F920F920FB60F92AB
:1000D00011248F939F93AF93BF93809106019091CA
:1000E0000701A0910801B09109010197A109B10987
:1000F0008093060190930701A0930801B093090132
:10010000892B8A2B8B2B99F481E080930A018091B3
:10011000000190910101A0910201B091030180932F
:10012000060190930701A0930801B0930901BF91C4
:10013000AF919F918F910F900FBE0F901F901895C8
:10014000813081F0E1ECF0E0808188618083E2EC35
:10015000F0E080818660808383E38093C400109206
:10016000C5000895E9ECF0E0808188618083EAECC5
:10017000F0E080818660808383E38093CC001092DE
:10018000CD000895813029F48091C800882374F04F
:1001900008958091C00088238CF4A6ECB0E0E0ECD8
:1001A000F0E08C9180818823E4F30895AEECB0E018
:1001B000E8ECF0E08C9180818823E4F308956130CD
:1001C00041F0E0ECF0E0908195FFFDCF8093C60018
:1001D0000895E8ECF0E0908195FFFDCF8093CE008C
:1001E000089580EC80937C008FE880937A000895D6
:1001F000ECE7F0E090818770982B908389EF90E096
:100200000197F1F700C00000EAE7F0E08081806428
:10021000808389EF90E00197F1F700C000008081B2
:1002200084FFFDCFEAE7F0E08081806180838091E8
:10023000780090917900089593EF94BD81E085BD99
:10024000E0E8F0E023EE2083809381009093B000FB
:100250008093B100909390008093910080E887BDD7
:1002600088BDF0938900E0938800F0938B00E093C1
:100270008A008093B3008093B400F0939900E093D8
:100280009800F0939B00E0939A00089511B88FEFC7
:1002900082B984B915B887B918B880EF8AB91BB884
:1002A000CBDF9FDF80E04CDF80E06CDFF12C0CE7E0
:1002B00010E00F2EF0EC8F2EF02DCAE7D0E00F2EBD
:1002C000F0EE3F2EF02D0F2EF1EC9F2EF02D0F2E85
:1002D000F0E74F2EF02D0F2EF2ECAF2EF02D0F2E5B
:1002E000F8E35F2EF02D0F2EF3ECBF2EF02D0F2E26
:1002F000FCE16F2EF02D0F2EF4ECCF2EF02D0F2EF3
:10030000FEE07F2EF02D0F2EF5ECDF2EF02D0F2EC0
:10031000F7E0EF2EF02DF8018082888180648883D9
:1003200081EE94E00197F1F700C0000080E060DF0B
:1003300090931801809317018739910510F018B830
:1003400001C038B8F801908288818064888381EE8A
:1003500094E00197F1F700C0000081E049DF90933D
:100360000C0180930B018739910528F018B89F2D57
:100370009E7FF92E04C0EF2DE160FE2E48B8F801F3
:10038000A08288818064888381EE94E00197F1F7F0
:1003900000C0000082E02CDF9093120180931101D5
:1003A0008739910510F018B801C058B8F801B0822B
:1003B00088818064888381EE94E00197F1F700C022
:1003C000000083E015DF90931401809313018739B7
:1003D000910510F018B801C068B8F801C082888192
:1003E0008064888381EE94E00197F1F700C00000FB
:1003F00084E0FEDE90931A018093190187399105FC
:1004000028F018B89F2D9D7FF92E04C078B8EF2DE5
:10041000E260FE2EF801D08288818064888381EEBC
:1004200094E00197F1F700C0000085E0E1DE9093D1
:100430000E0180930D018739910510F018B801C0A5
:10044000E8B886ECF801808388818064888381EE37
:1004500094E00197F1F700C0000086E0C9DE9093B8
:10046000100180930F018739910510F018B802C070
:1004700083E088B987ECF801808388818064888371
:1004800081EE94E00197F1F700C000008E2DB0DE00
:1004900090931601809315018739910548F01092C9
:1004A00005011092040118B89F2D9B7FF92E15C0ED
:1004B0008091040190910501843FE1E09E0730F0B6
:1004C000FF2DF460FF2E8FEF88B907C0019690933F
:1004D00005018093040181E088B960E08F2D6FDE13
:1004E00087EA91E60197F1F700C0000014CFF89475
:0204F000FFCF3C
:0404F2000100000005
:00000001FF
