:1000000045C0000060C000005EC000005CC0000091
:100010005AC0000058C0000056C0000054C0000084
:1000200052C0000050C000004EC000004CC0000094
:100030004AC000007EC0000046C0000044C000006E
:1000400042C0000040C000003EC000003CC00000B4
:100050003AC0000038C0000036C0000034C00000C4
:1000600032C0000030C000002EC000002CC00000D4
:100070002AC0000028C0000026C0000024C00000E4
:1000800022C0000020C000001EC0000011241FBEBE
:10009000CFEFD0E4DEBFCDBF11E0A0E0B1E0E2E6FB
:1000A000F4E000E00BBF02C007900D92A430B1074E
:1000B000D9F721E0A4E0B1E001C01D92A631B2075A
:1000C000E1F76CD1CCC19CCF60930001709301012A
:1000D00080930201909303016093110170931201C8
:1000E000809313019093140108958BE08093810015
:1000F0008DE790E0909389008093880082E0809360
:100100006F00109285001092840080910001909100
:100110000101A0910201B09103018093110190931C
:100120001201A0931301B09314018FB780688FBFA1
:1001300008951F920F920FB60F9211248F939F93E1
:10014000AF93BF938091110190911201A09113017F
:10015000B09114010197A109B10980931101909305
:100160001201A0931301B0931401892B8A2B8B2BBE
:1001700099F481E080931501809100019091010133
:10018000A0910201B091030180931101909312019B
:10019000A0931301B0931401BF91AF919F918F91E0
:1001A0000F900FBE0F901F901895181619065CF04F
:1001B0000895000021503109E1F74F5F5F4F841728
:1001C000950719F4089540E050E027E033E0F1CFBF
:1001D0005E9888B95F9A00005F9882E090E0E5CF72
:1001E000089581E0F5CF0895813118F48158F0CF5A
:1001F00008958155EDCF089584E690E0D6DF88E339
:10020000E7DF86E0E5DF8FE0E3DF81E0E1DF8AE042
:1002100090E0CBCF08955E9A88B95F9A00005F980E
:1002200081E090E0C2CF089580E584B980E48CBD80
:1002300008950DB407FEFDCF8EB50895029708F01E
:10024000AAC0F7DF282F30E03093100120930F0170
:1002500082B983E0C9DF40910F01509110019A01EA
:10026000ADECBCECEDD096958795969587959695D7
:1002700087959C01220F331F880F991F880F991FA4
:10028000880F991F820F931F9A01281B390BC901F0
:10029000805DC1DF82E0A8DF20910F013091100165
:1002A000ADECBCECCDD096958795969587959695B7
:1002B00087959C01220F331F880F991F880F991F64
:1002C000880F991F280F391FBBD0AC015695479551
:1002D00056954795569547955093100140930F01B9
:1002E0009A01AED096958795969587959695879520
:1002F0009C01220F331F880F991F880F991F880FA9
:10030000991F820F931F9A01281B390BC901805D29
:1003100082DF81E069DF20910F0130911001ADECA7
:10032000BCEC8ED0969587959695879596958795F2
:100330009C01220F331F880F991F880F991F880F68
:10034000991F280F391F7CD0AC01569547955695BB
:100350004795569547955093100140930F019A0188
:100360006FD09695879596958795969587959C01DC
:10037000220F331F880F991F880F991F880F991F0D
:10038000820F931F9A01281B390BC901805D43DF3F
:1003900081E090E0089580E090E00895CFEFC1B94A
:1003A00012B8C4B915B8C7B918B8CAB91BB824DF90
:1003B00018DFE4E0F1E0C08384EF91E0A0E0B0E07A
:1003C00081839283A383B48385839683A783B08735
:1003D0008EE191E09287818761E070E080E090E0BB
:1003E00073DE83DE21DFC4E0D1E04D815E816F8169
:1003F000788589819A81AB81BC81481759076A0742
:100400007B0761F48881E985FA85082E000C990B39
:10041000099588831D821E821F8218868D819E8188
:10042000AF81B8850196A11DB11D8D839E83AF83D9
:10043000B887809115018823E1F310921501D5CF7B
:10044000A29FB001B39FC001A39F700D811D112415
:10045000911DB29F700D811D1124911D0895F89476
:02046000FFCFCC
:040462000100000095
:00000001FF
