:1000000045C0000060C000005EC000005CC0000091
:100010005AC0000058C0000056C0000054C0000084
:1000200052C0000050C000004EC000004CC0000094
:100030004AC0000049C0000046C0000044C00000A3
:1000400042C0000040C000003EC000003CC00000B4
:100050003AC0000038C0000036C0000034C00000C4
:1000600032C0000030C000002EC000002CC00000D4
:100070002AC0000028C0000026C0000024C00000E4
:1000800022C0000020C000001EC0000011241FBEBE
:10009000CFEFD0E4DEBFCDBF11E0A0E0B1E0EAE7F2
:1000A000F2E000E00BBF02C007900D92A430B10750
:1000B000D9F721E0A4E0B1E001C01D92A931B20757
:1000C000E1F79DD0D8C09CCF1F920F920FB60F9230
:1000D00011248F939F93AF93BF93809104019091CC
:1000E0000501A0910601B09107010197A109B1098D
:1000F0008093040190930501A0930601B09307013A
:10010000892B8A2B8B2B99F481E0809308018091B5
:10011000000190910101A0910201B091030180932F
:10012000040190930501A0930601B0930701BF91CC
:10013000AF919F918F910F900FBE0F901F901895C8
:10014000813081F0E1ECF0E0808188618083E2EC35
:10015000F0E080818660808383E38093C400109206
:10016000C5000895E9ECF0E0808188618083EAECC5
:10017000F0E080818660808383E38093CC001092DE
:10018000CD000895613041F0E0ECF0E0908195FF02
:10019000FDCF8093C6000895E8ECF0E0908195FFD4
:1001A000FDCF8093CE00089580EC80937C008FE893
:1001B00080937A000895ECE7F0E090818770982BA7
:1001C000908389EF90E00197F1F700C00000EAE723
:1001D000F0E080818064808389EF90E00197F1F7FF
:1001E00000C00000808184FFFDCFEAE7F0E080815D
:1001F000806180838091780090917900089511B892
:100200008FEF82B914B885B987B918B88AB91BB805
:1002100080E096DFC9DF0F2EFCE7EF2EF12CF02DEA
:1002200010ECCAE7D0E000E8F70110838881806411
:10023000888381EE94E00197F1F700C0000080E030
:10024000BADF90931601809315018536910540F031
:100250001BB8E7EAF1E63197F1F700C00000E4CF00
:100260000BB960E08FEF8EDF87EA91E60197F1F737
:0A02700000C00000D9CFF894FFCFC2
:04027A00010000007F
:00000001FF
