S0240000636C6567613030315F6A63656E743030315F6C6162315F70617274322E7372656368
S113000045C0000060C000005EC000005CC000008D
S11300105AC0000058C0000056C0000054C0000080
S113002052C0000050C000004EC000004CC0000090
S11300304AC00000CEC0000046C0000044C000001A
S113004042C0000040C000003EC000003CC00000B0
S11300503AC0000038C0000036C0000034C00000C0
S113006032C0000030C000002EC000002CC00000D0
S11300702AC0000028C0000026C0000024C00000E0
S113008022C0000020C000001EC0000011241FBEBA
S1130090CFEFD0E4DEBFCDBF11E0A0E0B1E0EAEAEB
S11300A0F5E000E00BBF02C007900D92AA30B10743
S11300B0D9F721E0AAE0B1E001C01D92A433B20750
S11300C0E1F754D170C29CCF8130910531F0823078
S11300D0910541F0892BA9F409C080912E01882350
S11300E059F004C080912E01811106C088E08093EC
S11300F02D0181E090E0089510922D0182E090E0BE
S1130100089580E090E008958130910551F01CF449
S1130110892BA9F026C08230910541F0039759F04C
S113012020C080912E01882381F009C080912E0186
S1130130882389F00AC080912E0181110CC081E0CE
S113014080932C0181E090E0089582E080932C015B
S113015082E090E0089584E080932C0183E090E0B5
S1130160089580E090E00895609300017093010188
S1130170809302019093030160932F0170933001E7
S1130180809331019093320108958BE08093810034
S11301908DE790E0909389008093880082E08093BB
S11301A06F0010928500109284008091000190915C
S11301B00101A0910201B091030180932F0190935A
S11301C03001A0933101B09332018FB780688FBFA3
S11301D008951F920F920FB60F9211248F939F933D
S11301E0AF93BF9380912F0190913001A091310181
S11301F0B09132010197A109B10980932F01909325
S11302003001A0933101B0933201892B8A2B8B2BBF
S113021099F481E080933301809100019091010170
S1130220A0910201B091030180932F0190933001BA
S1130230A0933101B0933201BF91AF919F918F91FF
S11302400F900FBE0F901F901895181619065CF0AA
S11302500895000021503109E1F74F5F5F4F841783
S1130260950719F4089540E050E027E033E0F1CF1A
S11302705E9888B95F9A00005F9882E090E0E5CFCD
S1130280089581E0F5CF0895813118F48158F0CFB5
S113029008958155EDCF089584E690E0D6DF88E394
S11302A0E7DF86E0E5DF8FE0E3DF81E0E1DF8AE09E
S11302B090E0CBCF08955E9A88B95F9A00005F986A
S11302C081E090E0C2CF0895CF93DF93EC0181E009
S11302D0DBDF80912B01805DEEDFC230D10581F040
S11302E02CF42097E1F0219741F037C0C330D105B9
S11302F051F0C430D10551F030C0009B31C009C069
S1130300009B12C00CC0009B0FC003C0009907C023
S113031029C081E080932E01C1E0D0E023C0109277
S11303202E01C2E0D0E01EC080912C01823041F445
S113033080912B018F5F80932B01C3E0D0E012C02A
S113034080912B01882331F0815080932B01C3E0ED
S1130350D0E008C0C3E0D0E005C0C0E0D0E002C0F7
S1130360C4E0D0E0CE01DF91CF910895CF93DF9325
S113037000D000D000D0CDB7DEB711B88FEF82B96E
S113038084B915B887B918B88AB91BB885DF79DF7D
S11303900F2EF8EEDF2EF02D0F2EF3E0CF2EF02DE2
S11303A0B12CA12C56E940E030E020E004C0D62E68
S11303B0C72EB82EA92E652F742F832F922F2D2D83
S11303C03C2D4B2D5A2DCDD05D2D4C2D3B2D2A2D62
S11303D0611571058105910551F70F2EF4EFEF2E8C
S11303E0F02DFF24F39400E010E004C0E62EF72E75
S11303F0082F192F6D2D7C2D8B2D9A2D2E2D3F2DF1
S1130400402F512FAED0DE2CCF2CB02EA12E611553
S113041071058105910551F766E970E080E090E08F
S11304202E2D3F2D402F512F9CD029013A0168EEEB
S113043073E080E090E02E2D3F2D402F512F91D07E
S113044049015A0164EF71E080E090E02E2D3F2DC8
S1130450402F512F86D086E0E4E0F1E0DE011196D2
S113046001900D928A95E1F7E0E2F1E06FEF60838D
S11304704182528263827482458256826782708688
S113048084E691E092878187E5E1F1E060838182EF
S11304909282A382B48285829682A782B08684E601
S11304A090E092878187EAE0F1E0608321833283E0
S11304B043835483258336834783508784E890E0BD
S11304C0928781876E2D7F2D802F912F4DDE5DDEEB
S11304D06E0187E0C80ED11CDE0111967D01F70183
S11304E0019111917F01D80115964D915D916D9106
S11304F07C91189711968D919D910D90BC91A02D92
S1130500481759076A077B0781F4F8018081018441
S1130510F285E02D082E000C990B0995D8018C93D7
S1130520F8011582168217821086F801858196815A
S1130530A781B0850196A11DB11D85839683A783EC
S1130540B08790912D0180912C01892B85B9EC14F1
S1130550FD0429F6809133018823E1F310923301DD
S1130560BBCFA1E21A2EAA1BBB1BFD010DC0AA1F03
S1130570BB1FEE1FFF1FA217B307E407F50720F008
S1130580A21BB30BE40BF50B661F771F881F991F83
S11305901A9469F760957095809590959B01AC01CC
S10D05A0BD01CF010895F894FFCFC8
S10D05AA01000000200115010A0100
S9030000FC
