S010000074776F5F746573742E737265639B
S113000045C0000060C000005EC000005CC000008D
S11300105AC0000058C0000056C0000054C0000080
S113002052C0000050C000004EC000004CC0000090
S11300304AC0000040C1000046C0000044C00000A7
S113004042C0000040C000003EC000003CC00000B0
S11300503AC0000038C0000036C0000034C00000C0
S113006032C0000030C000002EC000002CC00000D0
S11300702AC0000028C0000026C0000024C00000E0
S113008022C0000020C000001EC0000011241FBEBA
S1130090CFEFD0E4DEBFCDBF11E0A0E0B1E0ECEAE9
S11300A0F4E000E00BBF02C007900D92A430B1074A
S11300B0D9F721E0A4E0B1E001C01D92A532B20756
S11300C0E1F7B1D1F1C19CCF813081F0E1ECF0E0F6
S11300D0808188618083E2ECF0E0808186608083A7
S11300E083E38093C4001092C5000895E9ECF0E026
S11300F0808188618083EAECF0E08081866080837F
S113010083E38093CC001092CD000895813029F4CC
S11301108091C800882374F008958091C0008823DA
S11301208CF4A6ECB0E0E0ECF0E08C9180818823C4
S1130130E4F30895AEECB0E0E8ECF0E08C9180815B
S11301408823E4F30895813041F0E0ECF0E080810D
S11301508823ECF78091C6000895E8ECF0E08081F4
S11301608823ECF78091CE0008958BE08093810082
S11301708DE790E0909389008093880082E08093DB
S11301806F0010928500109284008091000190917C
S11301900101A0910201B0910301809307019093A2
S11301A00801A0930901B0930A018FB780688FBF3B
S11301B008958130910591F08230910511F0892BD9
S11301C0C1F580910501823021F482B981E090E08B
S11301D0089581E082B981E090E00895809105015D
S11301E0823019F5809104018530A8F010928100C5
S11301F088EE93E0A0E0B0E08093190190931A0197
S1130200A0931B01B0931C0181E080930501ADDF35
S113021082E090E0089582E082B9809104018F5FCA
S11302208093040182E090E0089512B882E090E0A7
S1130230089580E090E00895EF92FF920F931F934A
S1130240CF93DF93CBE0D1E00F2EF3E2EF2EF1E07A
S1130250FF2EF02D8E014E815F81688579858A811C
S11302609B81AC81BD81481759076A077B0758F009
S1130270EA85FB85888199810995998388831E8203
S11302801F8218861986F80186819781A085B18519
S11302908C599F4FAF4FBF4F86839783A087B187F9
S11302A02C96CE15DF05B1F6DF91CF911F910F91FA
S11302B0FF90EF9008951F920F920FB60F921124A2
S11302C00BB60F922F933F934F935F936F937F934C
S11302D08F939F93AF93BF93EF93FF938091070105
S11302E090910801A0910901B0910A010197A10917
S11302F0B1098093070190930801A0930901B09379
S11303000A01892B8A2B8B2B89F496DF80910001BB
S113031090910101A0910201B09103018093070122
S113032090930801A0930901B0930A01FF91EF9102
S1130330BF91AF919F918F917F916F915F914F91F9
S11303403F912F910F900BBE0F900FBE0F901F90F7
S113035018956093000170930101809302019093BA
S1130360030160930701709308018093090190933E
S11303700A010895029708F050C08091060182FF97
S11303801AC0109281008AE090E0A0E0B0E080936F
S1130390190190931A01A0931B01B0931C0182E0F0
S11303A08093050164E670E080E090E0D2DFDDDE5A
S11303B081E090E0089581FF17C01092810084E6E7
S11303C090E0A0E0B0E08093190190931A01A0930B
S11303D01B01B0931C0164E670E080E090E0B9DF9B
S11303E0C4DE81E090E0089580FF1AC0109281007D
S11303F084EF91E0A0E0B0E08093190190931A019A
S1130400A0931B01B0931C0164E670E080E090E0CF
S1130410A0DFABDE81E090E0089580E090E00895F5
S113042081E090E008958FEF81B912B884B915B8CE
S11304301AB88BB980E048DEEBE0F1E0118210825B
S113044084E690E0A0E0B0E082839383A483B58344
S113045016821782108611868AEB91E09387828731
S11304601586148688EE93E0A0E0B0E0868797872F
S1130470A08BB18B128A138A148A158A89ED90E0B5
S1130480978B868B64E670E080E090E062DF6DDE3F
S1130490C0ECD0E088818823ECF780E054DE8093C0
S10F04A0060180E033DEF6CFF894FFCFB5
S10704AC0100000047
S9030000FC
