:100000004DC0000068C0000066C0000064C0000071
:1000100062C0000060C000005EC000005CC0000064
:100020005AC0000058C0000056C0000054C0000074
:1000300052C0000086C000004EC000004CC000004E
:100040004AC0000048C0000046C0000044C0000094
:1000500042C0000040C000003EC000003CC00000A4
:100060003AC0000038C0000036C0000034C00000B4
:1000700032C0000030C000002EC000002CC00000C4
:100080002AC0000028C0000026C0000006010A01A6
:10009000220136013A014E0152015C0111241FBEBA
:1000A000CFEFD0E4DEBFCDBF11E0A0E0B1E0E8E2E9
:1000B000F4E000E00BBF02C007900D92A630B1073C
:1000C000D9F721E0A6E0B1E001C01D92A731B20747
:1000D000E1F708D1A7C194CF6093010170930201A9
:1000E00080930301909304016093110170931201B6
:1000F000809313019093140108958BE08093810005
:100100008DE790E0909389008093880082E080934F
:100110006F001092850010928400809101019091EF
:100120000201A0910301B091040180931101909309
:100130001201A0931301B09314018FB780688FBF91
:1001400008951F920F920FB60F9211248F939F93D1
:10015000AF93BF938091110190911201A09113016F
:10016000B09114010197A109B109809311019093F5
:100170001201A0931301B0931401892B8A2B8B2BAE
:1001800099F481E080931501809101019091020121
:10019000A0910301B0910401809311019093120189
:1001A000A0931301B0931401BF91AF919F918F91D0
:1001B0000F900FBE0F901F90189520E030E061E087
:1001C00070E0479A469898B1AB01022E02C0440FE6
:1001D000551F0A94E2F7482311F0906101C09F7EF9
:1001E00098B9469A2F5F3F4F2830310551F7459A0D
:1001F00047980895E09116018E2F90E08830910580
:1002000008F05EC0FC01EA5BFF4F03C181E0809310
:10021000160164C0189906C0199B04C082E080933F
:10022000160158C0189B06C0199904C084E0809339
:10023000160150C0189952C0199950C086E0809399
:10024000160148C0189902C0199944C0189906C0EF
:10025000199904C086E0809316013CC083E0809326
:100260001601809100018F3F71F534C081E08093C9
:10027000160134C0189B02C0199B2CC0189906C0E7
:10028000199904C086E08093160124C085E080930C
:1002900016018091000181111AC01CC081E0809379
:1002A00016011CC0189902C0199B14C087E08093E6
:1002B0001601109200010EC081E0809316010EC05D
:1002C0001092160107C08F5F8093000103C0815018
:1002D000809300018091160190E0089580910001C3
:1002E0006CDFF8CF14B88FEF85B987B918B804E67A
:1002F00010E0D0E0C0E051E040E030E020E004C099
:10030000062F172FD82FC92F652F742F832F922FC9
:10031000202F312F4D2F5C2F5AD0502F412F3D2FA2
:100320002C2F611571058105910551F764E670E088
:1003300080E090E0202F312F4D2F5C2F48D0E6E059
:10034000F1E08FEF808321833283438354832583BD
:100350003683478350878AEF90E092878187602FAA
:10036000712F8D2F9C2FB8DEC8DE479A45988AEAF8
:1003700024DFC6E0D1E04D815E816F81788589817F
:100380009A81AB81BC81481759076A077B0761F4E2
:100390008881E985FA85082E000C990B09958883D8
:1003A0001D821E821F8218868D819E81AF81B88535
:1003B0000196A11DB11D8D839E83AF83B88745989B
:1003C000809115018823E1F310921501D4CFA1E2A9
:1003D0001A2EAA1BBB1BFD010DC0AA1FBB1FEE1FBF
:1003E000FF1FA217B307E407F50720F0A21BB30B0A
:1003F000E40BF50B661F771F881F991F1A9469F786
:1004000060957095809590959B01AC01BD01CF01E1
:100410000895EE0FFF1F0024001C0BBE0790F691FD
:08042000E02D0994F894FFCFD0
:06042800010100000000CC
:00000001FF
