S0240000636C6567613030315F6A63656E743030315F6C6162335F70617274322E7372656366
S113000045C0000060C000005EC000005CC000008D
S11300105AC0000058C0000056C0000054C0000080
S113002052C0000050C000004EC000004CC0000090
S11300304AC000007EC0000046C0000044C000006A
S113004042C0000040C000003EC000003CC00000B0
S11300503AC0000038C0000036C0000034C00000C0
S113006032C0000030C000002EC000002CC00000D0
S11300702AC0000028C0000026C0000024C00000E0
S113008022C0000020C000001EC0000011241FBEBA
S1130090CFEFD0E4DEBFCDBF11E0A0E0B1E0ECE3F0
S11300A0F7E000E00BBF02C007900D92AC31B1073E
S11300B0D9F721E0ACE1B1E001C01D92A034B20750
S11300C0E1F73BD239C39CCF6093000170930101E7
S11300D08093020190930301609338017093390176
S11300E080933A0190933B0108958BE080938100C3
S11300F08DE790E0909389008093880082E080935C
S11301006F001092850010928400809100019091FC
S11301100101A0910201B0910301809338019093F1
S11301203901A0933A01B0933B018FB780688FBF28
S113013008951F920F920FB60F9211248F939F93DD
S1130140AF93BF938091380190913901A0913A0106
S1130150B0913B010197A109B109809338019093B3
S11301603901A0933A01B0933B01892B8A2B8B2B45
S113017099F481E080933C01809100019091010108
S1130180A0910201B0910301809338019093390149
S1130190A0933A01B0933B01BF91AF919F918F918E
S11301A00F900FBE0F901F9018958FEE82B900002C
S11301B0009B29C0019B29C0029B29C0039B29C025
S11301C08FED82B90000009B26C0019B26C0029BD4
S11301D026C0039B26C08FEB82B90000009B23C07E
S11301E0019B23C0029B23C0039B23C08FE782B9DA
S11301F00000009B20C0019B20C0029B20C0039BE9
S113020020C080E0089581E3089584E3089587E39E
S113021008958AE2089582E3089585E3089588E3C2
S1130220089580E3089583E3089586E3089589E3B8
S1130230089583E2089581E4089582E4089583E4AF
S1130240089584E40895181619065CF008950000D2
S113025021503109E1F74F5F5F4F8417950719F477
S1130260089540E050E027E033E0F1CF5E9888B98C
S11302705F9A00005F9882E090E0E5CF089581E006
S1130280F5CF0895813118F48158F0CF0895815540
S1130290EDCF089584E690E0D6DF88E3E7DF86E0DB
S11302A0E5DF8FE0E3DF81E0E1DF8AE090E0CBCFC0
S11302B008955E9A88B95F9A00005F9881E090E0A3
S11302C0C2CF08950F931F93CF93DF93182FEB01A1
S11302D0D6DF8881882351F001E0010F812FD2DF1E
S11302E08991E7DF102F88818111F6CFDF91CF91BB
S11302F01F910F91089580913F01882319F0813057
S113030059F004C081E080933F0106C010923F0180
S113031080913F0190E0089564E071E081E0D2DFD4
S113032087E0B0DF83E3C5DF8FE0ACDF82E3C1DFCA
S113033087E1A8DF82E3BDDFEBCF80EB84B981E501
S11303408CBD08958EBD0DB407FEFDCF08952DDF3D
S11303508093370190913D01913041F018F0923033
S113036091F015C081E080933D01DEC08F3109F426
S1130370DBC092E090933D018093360110923701E7
S1130380813399F407C081E080933D01CDC0109280
S11303903D01CAC080913301813019F48093350145
S11303A0B5C081E080933401C3C0823361F480918D
S11303B03301813021F482E080933501A7C082E0CB
S11303C080933401B5C0833361F48091330181306B
S11303D021F483E08093350199C083E08093340154
S11303E0A7C0843359F480913301843019F4809385
S11303F035018EC084E0809334017EC0853361F47E
S113040080913301813021F485E0809335017EC0F1
S113041085E0809334018CC0863361F4809133018C
S1130420813021F486E08093350170C086E08093AA
S113043034017EC0873361F480913301813021F42B
S113044087E08093350162C087E08093340170C0F7
S1130450883361F480913301813021F488E0809302
S1130460350154C088E08093340162C0893361F45B
S113047080913301813021F489E08093350146C0B5
S113048089E08093340154C0813461F48091330154
S1130490813021F48AE08093350138C08AE080936A
S11304A0340146C0823461F480913301813021F4F7
S11304B08BE0809335012AC08BE08093340138C0EF
S11304C0833461F480913301813021F48CE0809392
S11304D035011CC08CE0809334012AC0843461F45B
S11304E080913301813021F48DE0809335010EC079
S11304F08DE0809334011CC080913301811104C0CC
S113050081E08093330104C0813011F410923301EF
S11305108091350120E1829FC00111249091340122
S1130520892B809332010EDF80913D0190E0089584
S113053080913301882321F3EBCFCF93DF9300D055
S113054000D0CDB7DEB790EF91B98FE082B92FEF2D
S113055024B915B827B918B89AB98BB90F2EF2E394
S1130560CF2ED12CE12CF12CF02D31E020E080E0D5
S113057090E0632F722FA7019601BCD0582F492F0A
S11305803C2D2D2D8E2D9F2DC62ED72EE52EF42EEF
S1130590C114D104E104F10461F70F2EF8EEEF2E3B
S11305A0F02D0F2EF3E0FF2EF02D00E010E052E3CB
S11305B040E030E020E004C0E62EF72E082F192F8B
S11305C0652F742F832F922F2E2D3F2D402F512FC7
S11305D091D05E2D4F2D302F212F6115710581058E
S11305E0910551F762E370E080E090E02E2D3F2DFD
S11305F0402F512F7FD049015A0168EE73E080E00B
S113060090E02E2D3F2D402F512F74D0A7E2B1E062
S1130610BA83A983ECE1F1E0FC83EB838FEF8C9345
S113062011968D929D92AD92BC92149715968D92CF
S11306309D92AD92BC92189767EA71E01A967C93EA
S11306406E93199780832183328343835483258354
S11306503683478350878BE791E0928781876E2D9D
S11306607F2D802F912F30DD40DD14DE66DE7E018C
S113067085E0E80EF11CDE0111966D01F601019191
S113068011916F01D80115964D915D916D917C91F9
S1130690189711968D919D910D90BC91A02D48179E
S11306A059076A077B0781F4F80180810184F28588
S11306B0E02D082E000C990B0995D8018C93F801B4
S11306C01582168217821086F80185819681A7818A
S11306D0B0850196A11DB11D85839683A783B0873C
S11306E0CE14DF0459F680913C018823E1F3109283
S11306F03C01C1CFA1E21A2EAA1BBB1BFD010DC0F8
S1130700AA1FBB1FEE1FFF1FA217B307E407F507BD
S113071020F0A21BB30BE40BF50B661F771F881F99
S1130720991F1A9469F760957095809590959B012F
S10F0730AC01BD01CF010895F894FFCF87
S113073C010000005074726E3A2020202053706423
S10F074C3A202020202075433A200000B1
S9030000FC
